:020000040800F2
:10000000180B0020D5010008F50B0008ED0B0008C7
:10001000F10B0008890400081D150008000000000D
:10002000000000000000000000000000950D000826
:10003000D50A0008000000007D0C0008A90E000889
:10004000EF010008EF010008EF010008EF010008D0
:10005000EF010008EF010008EF010008EF010008C0
:10006000EF010008EF010008EF010008EF010008B0
:10007000EF010008EF010008EF010008EF010008A0
:10008000EF010008EF010008EF010008EF01000890
:100090009D130008EF010008EF010008EF010008C0
:1000A000EF010008EF010008EF010008EF01000870
:1000B000EF010008EF0100080D0F0008EF01000834
:1000C000EF010008EF010008EF010008EF01000850
:1000D000EF01000831110008EF010008EF010008EE
:1000E000EF010008EF010008EF010008EF01000830
:1000F000EF010008EF010008EF010008EF01000820
:10010000EF010008EF010008EF010008EF0100080F
:10011000EF010008EF010008EF010008EF010008FF
:10012000EF010008EF010008EF010008EF010008EF
:1001300000F002F800F03FF80AA090E8000C8244BA
:100140008344AAF10107DA4501D100F034F8AFF297
:10015000090EBAE80F0013F0010F18BFFB1A43F0A5
:1001600001031847E415000004160000103A24BFEC
:1001700078C878C1FAD8520724BF30C830C144BF0C
:1001800004680C607047000000230024002500264E
:10019000103A28BF78C1FBD8520728BF30C148BFEA
:1001A0000B607047642900F07780002070471FB50E
:1001B0001FBD10B510BD00F037F91146FFF7F7FF6E
:1001C00001F0E2F900F055F903B4FFF7F2FF03BCC8
:1001D00001F0A6F90948804709480047FEE7FEE715
:1001E000FEE7FEE7FEE7FEE7FEE7FEE7FEE7FEE7E7
:1001F00004480549054A064B70470000AD0E00084B
:100200003101000818050020180B002018070020F5
:1002100018070020704700000FB4044910B503AA66
:10022000029800F0D3F810BC5DF814FB74000020B5
:100230002DE9F0410E460446002020622046E16888
:10024000884730B3252805D0D4E901219047206A9A
:10025000401CF2E7E168204600278847050018D0D7
:10026000A5F14100192802D820354FF40067324625
:10027000294620462760FFF795FF40B1012804D0AA
:10028000F61D26F007060836D8E7361DD6E72846BD
:10029000DAE7206ABDE8F0812DE9F0410646002446
:1002A00010687529314616A510D0AFF300800028DC
:1002B00002DA404213A507E031688A0701D512A58A
:1002C00002E0490704D511A5012401E0AFF3008045
:1002D00000210A2206F1240709E0B0FBF2FCB0FB82
:1002E000F2F302FB1C00303078541846491C0028F9
:1002F000F3D123462A463046BDE8F04100F00CB861
:10030000000000002D0000002B0000002000000075
:1003100070477047704770472DE9F0470D46994682
:100320009246044600F124080168880604D5E06975
:1003300021F01001216000E00120A84201DD471BEF
:1003400000E00027A1697A1902EB0900081AA061F0
:100350002078C00602D42046AFF30080002608E0D3
:10036000D4E901211AF806009047206A401C761C47
:1003700020624E45F4DB2078C0060AD52046AFF354
:10038000008006E0D4E9012130209047206A401C1B
:100390002062381EA7F10107F4DC07E0D4E901214F
:1003A00018F805009047206A401C2062281EA5F11D
:1003B0000105F3DC2046AFF300802078000602D56B
:1003C0000220BDE8F0870120FBE70000074B70B575
:1003D0000D467B4400F011F80446284600F020F852
:1003E00010B14FF0FF3070BD204670BD9711000076
:1003F00001694A1C02610878704700B58FB0CDE9E9
:1004000001310021059105497944CDE903101146D8
:100410006846FFF70DFF0FB000BD0000E5FFFFFFCE
:10042000007B00F080007047754600F029F8AE466A
:1004300005006946534620F00700854618B020B5F0
:10044000FFF7D6FEBDE820404FF000064FF0000752
:100450004FF000084FF0000B21F00701AC46ACE86C
:10046000C009ACE8C009ACE8C009ACE8C0098D46D9
:1004700070470446AFF300802046FFF7A5FE00005A
:1004800000487047B804002000BFFEE710B5002107
:10049000837A012202FA03F13D4A126842F0010216
:1004A0003B4B1A603A4A1C3212688A43384B1C3361
:1004B0001A60027BCAB9364A0C3212688A43344B3E
:1004C0000C331A604288C38842EA0343304A403200
:1004D000847A42F834300288838842EA03432C4A03
:1004E0004032847A02EBC4025360027B012A19D1A4
:1004F000274A0C3212680A43254B0C331A60428893
:10050000038842EA0343224A4032847A42F8343074
:10051000C288838842EA03431D4A4032847A02EB50
:10052000C4025360C27A3AB9194A121D12688A434A
:10053000174B1B1D1A6006E0154A121D12680A436C
:10054000134B1B1D1A60028932B9114A143212680A
:100550008A430F4B14331A600289012A06D10C4AD0
:10056000143212680A430A4B14331A60427B012A80
:1005700006D1074A1C3212680A43054B1C331A6025
:10058000034A126822F00102014B1A6010BD0000FC
:10059000006600401AB143690B43436102E04369BE
:1005A0008B434361704730B5024600200023146836
:1005B00024F002041460146844F00104146000E0A4
:1005C0005B1C546804F001041CB94FF6FF74A3428D
:1005D000F6D1546804F001040CB900206CE08C7969
:1005E000012C04D1146844F08004146003E0146802
:1005F00024F080041460CC79012C04D1146844F0F8
:100600004004146003E0146824F0400414600C7A81
:10061000012C04D1146844F02004146003E0146831
:1006200024F0200414604C7A012C04D1146844F0A6
:100630001004146003E0146824F0100414608C7A31
:10064000012C04D1146844F00804146003E0146819
:1006500024F008041460CC7A012C04D1146844F00E
:100660000404146003E0146824F0040414608C781B
:10067000A407CD7844EA05640D7944EA05444D7930
:1006800044EA05540D886D1E2C43D461146824F08F
:1006900001041460002300E05B1C546804F00104B2
:1006A0001CB14FF6FF74A342F6D1546804F0010464
:1006B0000CB1002000E0012030BD000000B589B081
:1006C0000121042000F0ECFA0121480600F0D8FADC
:1006D00014208DF8000001208DF8010000208DF815
:1006E000020001208DF80300684600F085FA4FF4FF
:1006F0008050ADF8200003208DF8220018208DF8DE
:10070000230008A9274800F0E6F94FF40060ADF88F
:10071000200048208DF8230008A9224800F0DBF9CA
:1007200000208DF81A008DF81B008DF81C000120A8
:100730008DF81D0000208DF81E008DF81F008DF82B
:1007400016008DF8170002208DF8180001208DF892
:1007500019000C20ADF8140005A91348FFF723FF7A
:1007600000208DF80E008DF80F0001208DF810008C
:100770000020ADF80400ADF80600ADF80800ADF8B3
:100780000A00ADF80C0001208DF8110001A8FFF758
:100790007DFE012202210448FFF7FCFE002009B083
:1007A00000BD0000000801400064004010B500F5E5
:1007B000D87303EB01131B6803F004031372137A5D
:1007C00053B900F5D87303EB01131B6840F2FF74B3
:1007D00004EA5353136009E000F5D87303EB0113E7
:1007E0001B686FF0604404EAD303536000F5D873CC
:1007F00003EB01131B6803F00203537200F5D87377
:1008000003EB01135B6803F00F03937200F5D873D9
:1008100003EB01135B681B0AD37400F5D87303EB79
:1008200001139B68D37200F5D87303EB01139B6827
:100830001C0A147300F5D87303EB01139B681C0C9E
:10084000547300F5D87303EB01139B681B0E93736D
:1008500000F5D87303EB0113DB68D37300F5D8738D
:1008600003EB0113DB681C0A147400F5D87303EB67
:100870000113DB681C0C547400F5D87303EB0113EF
:10088000DB681B0E937421B9C36843F02003C36077
:1008900003E0036943F02003036110BD10B5024675
:1008A0000020936803F08063B3F1806F00D110E003
:1008B000936803F00063B3F1006F01D1012008E0F9
:1008C000936803F08053B3F1805F01D1022000E010
:1008D0000420042874D002F5C07303EB00131B68D6
:1008E00003F0010402F5C07303EB00131C600B7AE4
:1008F0007BB94B7A0C8843EA445302F5C07404EB8D
:1009000000142468234302F5C07404EB0014236030
:1009100010E00B7A4C6843EAC4034C7A234302F597
:10092000C07404EB00142468234302F5C07404EB84
:10093000001423608B7A03F00F038B7202F5C073EF
:1009400003EB00135B6823F00F0402F5C07303EBA5
:1009500000135C6002F5C07303EB00135B688C7AD4
:10096000234302F5C07404EB001463608B7B1C0608
:100970004B7B44EA03440B7B44EA0323CC7A2343B6
:1009800002F5C07404EB0014A3608B7C1C064B7C46
:1009900044EA03440B7C44EA0323CC7B234302F563
:1009A000C07404EB0014E36002F5C07303EB0013A2
:1009B0001B6843F0010402F5C07303EB00131C60D5
:1009C00010BD000010B50246002321B1012907D057
:1009D00002290FD109E090681D4C00EA04030BE0E6
:1009E00090681C4C00EA040306E090681A4C00EA88
:1009F000040301E0002300BF00BF184C181BA342F2
:100A000016D007DC83B16FF08060184470B1022803
:100A100018D111E0B0F5007F10D0114C204448B13E
:100A2000B0F5003F0ED10BE002230DE000230BE0F8
:100A3000002309E0002307E0012305E0012303E090
:100A4000012301E0002300BF00BFD8B210BD0000A9
:100A50000300000400030008000003100001000868
:100A60000001FFF72DE9F04186B00746884615469C
:100A70000024019700208DF80C008DF80D008DF8F2
:100A80000E5000BF06E018F804100DF10F000155DC
:100A9000601C84B2AC42F6DB01A90D48FFF7FEFEF4
:100AA0000646002401E0601C84B231460848FFF786
:100AB00089FF18B940F6FF708442F4DB40F6FF70FE
:100AC000844203DB012006B0BDE8F0810020FAE794
:100AD0000064004070472DE9F041024600250026E1
:100AE000002000230024002791F803C00CF00F051C
:100AF00091F803C00CF0100CBCF1000F03D091F87A
:100B000002C04CEA050591F800C0BCF1000F31D0DD
:100B1000146800202BE04FF0010C0CFA00F3B1F840
:100B200000C00CEA03069E4220D183004FF00F0C58
:100B30000CFA03F7BC4305FA03FC4CEA040491F8F1
:100B400003C0BCF1280F06D14FF0010C0CFA00FCD9
:100B5000C2F814C00AE091F803C0BCF1480F05D1F7
:100B60004FF0010C0CFA00FCC2F810C0401C082821
:100B7000D1D31460B1F800C0BCF1FF0F34DD54686C
:100B800000202EE000F1080C4FF0010808FA0CF3E9
:100B9000B1F800C00CEA03069E4221D183004FF059
:100BA0000F0C0CFA03F7BC4305FA03FC4CEA0404EF
:100BB00091F803C0BCF1280F05D100F1080C08FA28
:100BC0000CF8C2F8148091F803C0BCF1480F07D1AB
:100BD00000F1080C4FF0010808FA0CF8C2F8108078
:100BE000401C0828CED35460BDE8F08100BFFEE76A
:100BF00000BFFEE77047000070B5002100230F2200
:100C0000C47804B3154C246804F4E064C4F5E064CB
:100C1000210AC1F10403CA40447804FA03F184783C
:100C20001440214309010E4C0678A155047804F0C4
:100C30001F050124AC4005786D11AD0005F1E025DC
:100C4000C5F8004109E0047804F01F050124AC4018
:100C5000044D0678761145F8264070BD0CED00E095
:100C600000E400E080E100E002490143024A116033
:100C7000704700000000FA050CED00E0704700002E
:100C800029B1064AD2690243044BDA6104E0034AFF
:100C9000D2698243014BDA617047000000100240C4
:100CA00029B1064A92690243044B9A6104E0034A5F
:100CB00092698243014B9A61704700000010024024
:100CC00030B500210022002400232D4D6D6805F071
:100CD0000C0121B1042905D0082923D105E0294DB3
:100CE000056022E0274D05601FE0254D6D6805F485
:100CF0007012234D6D6805F48034022505EB924295
:100D00001CB9214D554305600BE01D4D6D6805F480
:100D100000351DB11C4D5543056002E0194D55438A
:100D2000056002E0174D056000BF00BF144D6D68FF
:100D300005F0F0010909154D6B5C0568DD40456063
:100D40000F4D6D6805F4E061090A104D6B5C456854
:100D5000DD4085600A4D6D6805F46051C90A0B4D90
:100D60006B5C4568DD40C560054D6D6805F440412C
:100D7000890B074D6B5CC568B5FBF3F5056130BDAC
:100D80000010024000127A0000093D0078000020A7
:100D900088000020704710B500F002F810BD000078
:100DA0000CB50020019000903348006840F480307A
:100DB0003149086000BF3048006800F400300090FE
:100DC0000198401C0190009818B90198B0F5A06FE7
:100DD000F1D12948006800F4003010B101200090E2
:100DE00001E0002000900098012843D123480068CA
:100DF00040F01000214908600846006820F0030018
:100E000008600846006840F0020008601A48406820
:100E1000194948600846406848600846406840F400
:100E2000806048600846406820F47C1048600846AE
:100E3000406840F4E81048600846006840F0807060
:100E4000086000BF0C48006800F000700028F9D06E
:100E50000948406820F00300074948600846406898
:100E600040F00200486000BF0348406800F00C00FA
:100E70000828F9D10CBD00000010024000200240FB
:100E8000042808D14FF0E021096941F004014FF036
:100E9000E022116107E04FF0E021096921F004012F
:100EA0004FF0E022116170477047000010B5134801
:100EB000006840F001001149086008464068104988
:100EC00008400E494860084600680E4908400B4932
:100ED00008600846006820F48020086008464068E2
:100EE00020F4FE0048604FF41F008860FFF753FFB6
:100EF0004FF000600449086010BD0000001002407F
:100F00000000FFF8FFFFF6FE08ED00E010B501213C
:100F1000274800F0A0F8002849D00121244800F01B
:100F20008BF824480088C0F3C70023490870214883
:100F3000007800F0070021490988C1F3032141EA44
:100F400040101D4948701D48007888709F20C87067
:100F5000FF200871002048718871C87108224FF481
:100F60009E60FFF77FFD0822154940F2F140FFF730
:100F700079FD0822134940F2F250FFF773FD082271
:100F8000114940F2F350FFF76DFD08220F4940F27E
:100F9000F450FFF767FD08220D4940F2F550FFF7C6
:100FA00061FD08220B494FF4B860FFF75BFD10BDEF
:100FB00000080040540000200000002056000020DF
:100FC0000800002010000020180000202000002051
:100FD00028000020300000207FB505460C46012186
:100FE0000420FFF74DFE1E208DF8000000208DF834
:100FF000010003208DF8020001208DF803006846EF
:10100000FFF7FAFDADF80850ADF804400020ADF848
:101010000A00ADF8060001A9064800F037F80121E2
:10102000044800F00CF801221146024800F024F8B0
:101030007FBD000000080040CA430282704721B112
:10104000028842F00102028004E002884FF6FE733B
:101050001A400280704730B5024600200023002469
:10106000158A05EA0103958905EA010413B10CB15B
:10107000012000E0002030BD1AB183890B43838139
:1010800002E083898B43838170470000002202883D
:101090001D4B98420ED01D4B98420BD0B0F1804FA3
:1010A00008D01B4B984205D01A4B984202D01A4BDD
:1010B000984204D14FF68F731A404B881A43174B4E
:1010C000984207D0164B984204D04FF6FF431A407F
:1010D000CB881A4302808B8883850B8803850A4B53
:1010E00098420BD0094B984208D00E4B984205D03D
:1010F0000D4B984202D00D4B984201D10B7A0386DA
:101100000123838270470000002C0140003401401D
:101110000004004000080040000C004000100040A7
:1011200000140040004001400044014000480140DC
:1011300070B540F22551244800F06EF810B32248F3
:1011400000F026F9C4B22148008800F40040C8B974
:101150001E48008800F4804060B10A2C03D00020B3
:101160001A49088021E01948008840F400401749D6
:1011700008801AE00D2C06D11448008840F4804005
:101180001249088011E011480088C0F30D0510488D
:1011900044550E480088401C0C49088008460088C9
:1011A000B0F5967F01DB002008800821064800F09A
:1011B00026F8012806D10821034800F00BF8024860
:1011C00000F0E6F870BD0000003801405800002033
:1011D0008C03002001F40072B2F5007F00D100BF43
:1011E000CA430280704721B1828942F40052828151
:1011F00004E082894DF6FF731A40828170470246EF
:101200000020B1F5007F00D100BF13880B400BB167
:10121000012000E00020704770B502460024002342
:101220000025002040F66A16B14200D100BFC1F38C
:10123000421501F01F03012606FA03F3012D02D126
:101240009689334006E0022D02D1168A334001E030
:10125000968A33400C12012606FA04F416883440AC
:1012600013B10CB1012000E0002070BDF0B50346C1
:10127000002400260025002040F66A17B94200D15C
:1012800000BF1846C1F3421401F01F06012707FAF8
:1012900006F5012C01D10C3004E0022C01D11030F4
:1012A00000E014301AB107682F43076002E00768B6
:1012B000AF430760F0BD00002DE9F04786B005465A
:1012C0000E460024A24600BFA1460027B08900B107
:1012D00000BF2F462C8A4CF6FF700440F088044370
:1012E0002C82AC894EF6F3100440B0883189084353
:1012F000718908430443AC81AC8A4FF6FF40044037
:10130000B0890443AC8201A8FFF7DAFC1F4887428A
:1013100002D1DDF810A001E0DDF80CA0A88900F4EE
:10132000004040B10AEBCA0000EB0A1031684900E6
:10133000B0FBF1F807E00AEBCA0000EB0A103168D5
:101340008900B0FBF1F86420B8FBF0F0040120093B
:10135000642101FB1089A88900F4004040B13220CB
:1013600000EBC900B0FBF1F000F00700044308E017
:10137000322000EB09106421B0FBF1F000F00F0007
:1013800004432C8106B0BDE8F0870000003801401E
:1013900001468888C0F308007047000030B585B06A
:1013A000002400256A4600215348FFF7FFF9009802
:1013B000B0F59C6F23D100BF05E00DF10B00005D7F
:1013C0004E490855641C082CF7DB4C4800794B4902
:1013D000C97800EB01204A490880084600880012BD
:1013E0004849087046480078487000208870C870E6
:1013F00008714871BF208871EC20C87179E040F213
:10140000E141009888420AD1002405E00DF10B006B
:10141000005D3D490855641C082CF7DB69E040F28B
:10142000E341009888420AD1002405E00DF10B0049
:10143000005D36490855641C082CF7DB59E000981C
:10144000B0F5A06F55D30098B0F5A86F51D20098B1
:10145000A0F5A065002407E00DF10B00005D2C490C
:1014600001EBC5010855641C082CF5DB284800EB8E
:10147000C500407800F01000102817D1244901EB76
:10148000C5014878C11700EBD1614911A0EB4111AA
:1014900049011F4A02EBC502927801EBE20141F4D7
:1014A0007C4109B21B4A22F8151013E0184901EBE0
:1014B000C5014878C11700EBD1614911A0EB41117A
:1014C0004901134A02EBC502927801EBE201114A8D
:1014D00022F815100E4800EBC500C0780C4901EB4E
:1014E000C501897800EB0120C0F30A000A4921F800
:1014F000150005B030BD0000006400403A00002037
:101500003800002008000020420000204A0000208F
:101510008C0100208C0000200C01002000BFFEE7A1
:10152000014600BF7047000010B56FF00400FFF7E0
:10153000A7FC0A4800680A49B0FBF1F009490870A5
:101540000846007800EB4001C1EBC0104FF6FF7178
:1015500001EAC0000449088010BD00005C000020C2
:1015600000127A00700000207200002000BF054ABF
:10157000128802F04002002AF9D0C2B2014B1B1DB2
:101580001A807047003801404FF4A060FFF76CFBF1
:10159000FFF7CAFF4FF4E13000F084F841F61F4135
:1015A000C720FFF719FDFFF789F865E04FF0000845
:1015B00000250024002600274FF001092F4800884D
:1015C00000F40040002856D02C480088C0F30D00DD
:1015D0002B49088000BF0BE02A48005D232800D17A
:1015E000A0462848005D2C2800D12546601C84B206
:1015F000234800888442EFDB08F1010084B21EE03A
:10160000AC4207DA1F48005D06EB860100EB4100A3
:10161000303886B2AC4210DD1A48005D2D2802D168
:101620004FF0FF3909E01748005D303800FB09F042
:1016300007EB870100EB410007B2601C84B2104841
:1016400000888442DCDB10480680104807800024B4
:1016500009E00F48B0F900200E4801880EA0FEF7FF
:10166000DBFD601C84B2402CF3DB0DA0FEF7D4FD43
:1016700000200249088000BF98E7000058000020C1
:10168000520000208C03002054000020560000204F
:101690008C0000200C01002025642C25643B0000F8
:1016A0002400000010B586B00446012144F2040075
:1016B000FFF7F6FA4FF40070ADF8140003208DF830
:1016C000160018208DF8170005A91D48FFF703FA2A
:1016D0004FF48060ADF8140004208DF8170005A9C0
:1016E0001748FFF7F8F925208DF8000000208DF845
:1016F000010002208DF8020001208DF803006846E9
:10170000FFF77AFA01940020ADF80800ADF80A005E
:10171000ADF80C00ADF810000C20ADF80E0001A9DA
:101720000848FFF7C9FD012240F225510548FFF79F
:101730009DFD01210348FFF756FD06B010BD0000D6
:101740000008014000380140681700080000002030
:101750008C0000006C010008F41700088C000020C9
:101760008C0A0000880100080000001FFF00000034
:10177000000000000000BFECC0040F78285C0000EF
:1017800000000000000201010047000000562E1278
:101790000000000000000000000000000000000049
:1017A0000000000000000000000000000000000039
:1017B0000000000000000000000000000000000029
:1017C0000000000000A24A04000000000000000029
:1017D00001020304060708090000000000000000E1
:1017E00000000000010203040102030406070809C7
:0417F00002040608E1
:0400000508000131BD
:00000001FF
